:100000000C942A030C9452030C9452030C94520344
:100010000C9452030C9452030C9452030C9452030C
:100020000C9452030C9452030C9452030C945203FC
:100030000C9452030C9452030C9452030C945203EC
:100040000C94D7040C9452030C9447050C9421058E
:100050000C9452030C9452030C9452030C945203CC
:100060000C9452030C94520305A84CCDB2D44EB953
:100070003836A9020C50B9918688083CA6AAAA2A4B
:10008000BE000000803F0000050014002C004F005F
:100090007B00B100F1003B018E01EB015102C10276
:1000A0003B03BE034A04DF047E052506D5068F0701
:1000B00050081B09EE09C90AAD0B980C8C0D870E70
:1000C0008A0F9410A611BF12DF130515321666179A
:1000D000A018E019261B721CC31D191F7420D521FE
:1000E0003A23A32411268227F728702AED2B6C2DA2
:1000F000EE2E7330FA3184330F359C362A38BA39F4
:100100004B3BDC3C6E3E004092412443B5444646A6
:10011000D6476449F14A7C4C064E8D4F1251945299
:100120001354905509577E58EF595D5BC65C2B5EA2
:100130008C5FE7603D628E63DA64206660679A6870
:10014000CE69FB6A216C416D5A6E6C6F7670797165
:1001500074726873537437751276E576B077717878
:100160002B79DB79827A217BB67B427CC57C3F7D13
:10017000AF7D157E727EC57E0F7F4F7F857FB17FFD
:10018000D47FEC7FFB7FFF7FFB7FEC7FD47FB17F51
:10019000857F4F7F0F7FC57E727E157EAF7D3F7D51
:1001A000C57C427CB67B217B827ADB792B797178A6
:1001B000B077E57612763775537468737472797117
:1001C00076706C6F5A6E416D216CFB6ACE699A68CD
:1001D00060672066DA648E633D62E7608C5F2B5E49
:1001E000C65C5D5BEF597E58095790551354945285
:1001F00012518D4F064E7C4CF14A6449D647464613
:10020000B5442443924100406E3EDC3C4B3BBA393E
:100210002A389C360F358433FA317330EE2E6C2D2C
:10022000ED2B702AF72882271126A3243A23D52103
:100230007420191FC31D721C261BE019A018661715
:1002400032160515DF13BF12A61194108A0F870E00
:100250008C0D980CAD0BC90AEE091B0950088F07CD
:10026000D50625067E05DF044A04BE033B03C10212
:100270005102EB018E013B01F100B1007B004F0008
:100280002C0014000500F00FF81FF42FFC3FF24F74
:10029000FA5FF66FFE7FF18FF99FF5AFFDBFF3CFE9
:1002A000FBDFF7EFE007E817E427EC37E247EA5710
:1002B000E667EE77E187E997E5A7EDB7E3C7EBD708
:1002C000D00BD81BD42BDC3BD24BDA5BD66BDE7B5E
:1002D000D18BD99BD5ABDDBBD3CBC003C813C42313
:1002E000CC33C243CA53C663CE73C183C993C5A37B
:1002F000CDB3B00DB81DB42DBC3DB24DBA5DB66DD9
:10030000BE7DB18DB99DB5ADA005A815A425AC35B0
:10031000A245AA55A665AE75A185A995900998191B
:1003200094299C3992499A5996699E7991898001BC
:10033000881184218C3182418A5186618E71700EC0
:10034000781E742E7C3E724E7A5E766E600668165B
:1003500064266C3662466A56500A581A542A5C3A29
:10036000524A4002481244224C32300C381C342C81
:100370002004281410084276FC30825A825AFC303D
:1003800042768A7DF9184276FC306E6A1D47825AA1
:10039000825A1D476E6AFC304276F9188A7D627F68
:1003A0008C0C8A7DF9187D7A28254276FC30E37022
:1003B000573C6E6A1D47F2623451825A825A345158
:1003C000F2621D476E6A573CE370FC304276282586
:1003D0007D7AF9188A7D8C0C627FD97F4806627F0E
:1003E0008C0C9D7EC8128A7DF9182A7C1A1F7D7A92
:1003F000282585781F2B4276FC30B673BA36E37019
:10040000573CCA6DCE416E6A1D47D066404CF262C1
:100410003451D75EF655825A825AF655D75E34511A
:10042000F262404CD0661D476E6ACE41CA6D573CA1
:10043000E370BA36B673FC3042761F2B85782825D8
:100440007D7A1A1F2A7CF9188A7DC8129D7E8C0C31
:10045000627F4806D97FF67F2403D97F4806A77FAD
:100460006B09627F8C0C0A7FAB0F9D7EC8121E7ECB
:10047000E2158A7DF918E47C0C1C2A7C1A1F5D7B2E
:1004800024227D7A28258A79272885781F2B6C7766
:10049000112E4276FC300575DF33B673BA365572CD
:1004A0008D39E370573C5F6F173FCA6DCE41246CA6
:1004B0007B446E6A1D47A768B449D066404CE96426
:1004C000C04EF2623451EC609B53D75EF655B45C7B
:1004D0004358825A825A4358B45CF655D75E9B53B0
:1004E000EC603451F262C04EE964404CD066B449CD
:1004F000A7681D476E6A7B44246CCE41CA6D173FC6
:100500005F6F573CE3708D395572BA36B673DF337F
:100510000575FC304276112E6C771F2B85782728C5
:100520008A7928257D7A24225D7B1A1F2A7C0C1C5F
:10053000E47CF9188A7DE2151E7EC8129D7EAB0F01
:100540000A7F8C0C627F6B09A77F4806D97F240342
:10055000F67F0000080D1013151618191B1C1D1E20
:100560001E1F202121222323242425252626262759
:10057000272828282929292A2A2A2B2B2B2B2C2CDF
:100580002C2C2D2D2D2D2E2E2E2E2E2F2F2F2F2F8E
:10059000303030303031313131313132323232324B
:1005A0003232333333333333333434343434343416
:1005B00034353535353535353535363636363636E6
:1005C00036363637373737373737373737383838BB
:1005D0003838383838383838393939393939393993
:1005E000393939393A3A3A3A3A3A3A3A3A3A3A3A6F
:1005F0003A3B3B3B3B3B3B3B3B3B3B3B3B3B3B3B4C
:100600003C3C3C3C3C3C3C3C3C3C3C3C3C3C3C3C2A
:100610003D3D3D3D3D3D3D3D3D3D3D3D3D3D3D3D0A
:100620003D3E3E3E3E3E3E3E3E3E3E3E3E3E3E3EEB
:100630003E3E3E3F3F3F3F3F3F3F3F3F3F3F3F3FCD
:100640003F3F3F3F3F3F3F3F4040404040404040B2
:100650004040730811241FBECFEFD8E0DEBFCDBFEE
:1006600011E0A0E0B1E0E4EDF6E102C005900D92EA
:10067000A631B107D9F726E0A6E1B1E001C01D928D
:10068000AC33B207E1F713E0CAE2D3E004C021972C
:10069000FE010E94620BC932D107C9F70E94790599
:1006A0000C94680B0C9400003FB7F89480919B0564
:1006B00090919C05A0919D05B0919E0526B5A89BA3
:1006C00005C02F3F19F00196A11DB11D3FBFBA2FE4
:1006D000A92F982F8827BC01CD01620F711D811DA4
:1006E000911D42E0660F771F881F991F4A95D1F729
:1006F0000895FC01538D448D252F30E0842F90E028
:10070000821B930B541710F0CF960895019708950C
:10071000FC01918D828D981761F0A28DAE0FBF2FD5
:10072000B11D5D968C91928D9F5F9F73928F90E02B
:1007300008958FEF9FEF0895FC01918D828D98179A
:1007400031F0828DE80FF11D858D90E008958FEFD7
:100750009FEF0895FC01918D228D892F90E0805CA0
:100760009F4F821B91098F73992708958FE995E018
:100770000E94AA0321E0892B09F420E0822F08952A
:1007800080E090E0892B29F00E94B60381110C943F
:1007900000000895FC01A48DA80FB92FB11DA35A24
:1007A000BF4F2C91848D90E001968F739927848F91
:1007B000A689B7892C93A089B1898C9183708064B4
:1007C0008C93938D848D981306C00288F389E02D55
:1007D00080818F7D80830895EF92FF920F931F9306
:1007E000CF93DF93EC0181E0888F9B8D8C8D9813E4
:1007F0001AC0E889F989808185FF15C09FB7F894F0
:10080000EE89FF896083E889F9898081837080643B
:1008100080839FBF81E090E0DF91CF911F910F9186
:10082000FF90EF900895F62E0B8D10E00F5F1F4F95
:100830000F731127E02E8C8D8E110CC00FB607FCA4
:10084000FACFE889F989808185FFF5CFCE010E9432
:10085000CA03F1CFEB8DEC0FFD2FF11DE35AFF4FD3
:10086000F0829FB7F8940B8FEA89FB8980818062C0
:10087000CFCFCF93DF93EC01888D8823B9F0AA897D
:10088000BB89E889F9898C9185FD03C0808186FD4B
:100890000DC00FB607FCF7CF8C9185FFF2CF80819A
:1008A00085FFEDCFCE010E94CA03E9CFDF91CF9142
:1008B0000895AF92BF92CF92DF92EF92FF920F9383
:1008C0001F93CF93DF936C017B018B01040F151FE6
:1008D000EB015E01AE18BF08C017D10759F069914E
:1008E000D601ED91FC910190F081E02DC6010995B2
:1008F000892B79F7C501DF91CF911F910F91FF905F
:10090000EF90DF90CF90BF90AF900895FC010190E1
:100910000020E9F73197AF01481B590BBC018FE963
:1009200095E00C9459048F929F92AF92BF920F93CF
:100930001F93CF93DF93CDB7DEB7A1970FB6F8948F
:10094000DEBF0FBECDBF19A2423008F44AE08E01CF
:100950000F5D1F4F842E912CB12CA12CA501940169
:100960000E94400BE62FB901CA01EA30F4F4E05DC1
:10097000D801EE938D01232B242B252B79F790E0C2
:1009800080E0109719F0CD010E948604A1960FB661
:10099000F894DEBF0FBECDBFDF91CF911F910F91B5
:1009A000BF90AF909F908F900895E95CE1CF1F9228
:1009B0000F920FB60F9211242F933F938F939F9313
:1009C000AF93BF938091970590919805A091990559
:1009D000B0919A053091960523E0230F2D3758F5F5
:1009E0000196A11DB11D20939605809397059093C4
:1009F0009805A0939905B0939A0580919B059091D5
:100A00009C05A0919D05B0919E050196A11DB11D6B
:100A100080939B0590939C05A0939D05B0939E05A4
:100A2000BF91AF919F918F913F912F910F900FBEEA
:100A30000F901F90189526E8230F0296A11DB11D57
:100A4000D2CF1F920F920FB60F9211242F933F9384
:100A50004F935F936F937F938F939F93AF93BF93C6
:100A6000EF93FF938FE995E00E94CA03FF91EF9106
:100A7000BF91AF919F918F917F916F915F914F91B6
:100A80003F912F910F900FBE0F901F9018951F92BE
:100A90000F920FB60F9211242F938F939F93EF9382
:100AA000FF93E091AF05F091B0058081E091B5052D
:100AB000F091B60582FD1BC090818091B8058F5FD3
:100AC0008F732091B905821741F0E091B805F0E0ED
:100AD000E156FA4F958F8093B805FF91EF919F9162
:100AE0008F912F910F900FBE0F901F9018958081BE
:100AF000F4CF789484B5826084BD84B5816084BD70
:100B000085B5826085BD85B5816085BD80916E00AB
:100B1000816080936E0010928100809181008260DC
:100B20008093810080918100816080938100809119
:100B300080008160809380008091B1008460809308
:100B4000B1008091B00081608093B00080917A0004
:100B5000846080937A0080917A00826080937A002A
:100B600080917A00816080937A0080917A00806819
:100B700080937A001092C100E091AF05F091B0052A
:100B800082E08083E091AB05F091AC051082E091AA
:100B9000AD05F091AE0580E180831092B705E0913C
:100BA000B305F091B40586E08083E091B105F09142
:100BB000B205808180618083E091B105F091B2053A
:100BC000808188608083E091B105F091B2058081D9
:100BD00080688083E091B105F091B20580818F7DBE
:100BE000808385EE80937A0010927C0081E0809370
:100BF0007E0006E913E0D0E0C0E0BE010D2E000C3F
:100C0000880B990B0E94B70923E634E14DE956E4BD
:100C10000E94430A20E030E048EC56E40E940D09AF
:100C20000E94B00A20E030E84FEF53E40E94430AEC
:100C300020E030E040E054E40E94A1080E947F09D7
:100C4000F801619371938F012196C115F1E0DF07DF
:100C5000A1F635EEB32E06E913E0C6E9D1E0DE01D8
:100C6000E6E9F3E080917A0084FFFCCFB0927A004D
:100C700081919191925026E0880F991F2A95E1F772
:100C80008D939D9325E0E639F20761F72F923F920D
:100C90004F925F92FF920F931F93CF93DF93C6E91A
:100CA000D1E0E6E8F0E040E06591759108811981B6
:100CB000FF24970320010E034F1C10019E035F08C1
:100CC000300C411C5F1CF8035F08300C411C5F1C9A
:100CD000499259924A9541F7DF91CF911F910F9117
:100CE000FF905F904F903F902F9011242F923F9252
:100CF0006F927F92CF93DF93E6E8F2E048E7A59109
:100D0000BB27AA0FBB1FAA56BE4F2D903C90C59182
:100D1000DD27CC0FDD1FCA56DE4F688079807C92BC
:100D20006E92288239824A9551F7DF91CF917F9058
:100D30006F903F902F902F923F924F925F926F92C1
:100D40007F928F929F92AF92BF92CF92DF92EF925B
:100D5000FF920F931F93CF93DF93FF2400E2E02EC7
:100D6000C6E9D1E0688079804A805B807594679499
:100D7000430155944794640C751C84189508AC8005
:100D8000BD804E805F80B594A794650155944794CB
:100D9000A40CB51CC418D508688579854A845B8481
:100DA000759567958B0155944794640D751D0419CD
:100DB00015098C859D854E845F84959587959C014A
:100DC00055944794840D951D24193509759467949D
:100DD0002301B594A7946A0C7B1C4A185B08959470
:100DE00087945401D594C7948C0C9D1CAC18BD08F5
:100DF000759567956B0195958795680F791FC81A4A
:100E0000D90A75946794130175956795660E771ED8
:100E1000261A370A42E85AE51503C001049FB001BB
:100E200014039F09700D811D9F1D509F700D811D22
:100E30009F1D959487948401880E991E081B190B99
:100E400055944794D201D594C7944C0C5D1CAC19B1
:100E5000BD093503C001249FB00134039F09700D03
:100E6000811D9F1D529F700D811D9F1DB594A794DC
:100E70006501A80EB91EC81AD90A69927992899299
:100E8000999249925992A992B992299239920993C9
:100E90001993A993B993C992D992EA9409F062CFB0
:100EA00000E2C02EDD2403E0902EE6E7F3E000E14F
:100EB000A02EBB2404E0E02EA6E9B1E0ED01CA0DAE
:100EC000DB1D8E2C2D903C904880598035942794C2
:100ED000310155944794640C751C241835082992E7
:100EE00039927C926E92AC0DBD1D1197EA940881E7
:100EF00019813C912E9145915591659175911502FD
:100F00002001049F100114035F08300C411C5F1C7A
:100F1000509F300C411C5F1C37023001269F200C73
:100F2000311C461C571C36035F08300C411C5F1CEB
:100F3000729F300C411C5F1C0E01CA19DB0928800E
:100F40003980359427943101640C751C24183508B8
:100F500068827982E0012992399217022001069F66
:100F6000100116035F08300C411C5F1C709F300C91
:100F7000411C5F1C35023001249F201831084608AF
:100F8000570834035F1C301841085F08529F30181F
:100F900041085F080D01AA19BB092D903C903594BA
:100FA00027943101640C751C241835087C926E92CC
:100FB000D0012D923C921297EA9409F098CFDE016D
:100FC000AA19BB092D903C904880598035942794EC
:100FD000310155944794640C751C241835082882F7
:100FE00039827C926E92C50196958795C80FD91F5C
:100FF000C639D90540F4DE01CA0DDB1DE82CEA191B
:10100000FB0934965FCF86FC06C0EA2CE6945601B5
:10101000CC0CDD1C51CFDF91CF911F910F91FF9030
:10102000EF90DF90CF90BF90AF909F908F907F9088
:101030006F905F904F903F902F901124C990D9905E
:101040000D2C000CEE08FF084AE0C701B601F7FEC0
:101050000DC06DE28FE995E00E94EC0366277727CB
:10106000CB016C197D098E099F094AE00E94930407
:1010700082E191E00E9486040C171D07F9F6C4EF87
:10108000D0E04AE060E070E0CB010E94930482E18E
:1010900091E00E9486042197A1F70E9454032B013E
:1010A0003C0188E8C82E83E1D82EE12CF12C0E9467
:1010B00054036419750986099709683E73408105D0
:1010C0009105A8F381E0C81AD108E108F108E8EE1B
:1010D0004E0EE3E05E1E611C711CC114D104E104DC
:1010E000F10429F7BACDEFE9F5E01382128288EE18
:1010F00093E0A0E0B0E084839583A683B78384E087
:1011000091E09183808385EC90E09587848784ECDF
:1011100090E09787868780EC90E0918B808B81ECC4
:1011200090E0938B828B82EC90E0958B848B86ECA5
:1011300090E0978B868B118E128E138E148E0895ED
:101140005058BB27AA270E94B8080C94090A0E948D
:10115000FB0938F00E94020A20F039F49F3F19F48D
:1011600026F40C94F8090EF4E095E7FB0C94F209D0
:10117000E92F0E941A0A58F3BA1762077307840707
:10118000950720F079F4A6F50C943C0A0EF4E0954E
:101190000B2EBA2FA02D0B01B90190010C01CA0131
:1011A000A0011124FF27591B99F0593F50F4503EDC
:1011B00068F11A16F040A22F232F342F4427585FCE
:1011C000F3CF469537952795A795F0405395C9F7E6
:1011D0007EF41F16BA0B620B730B840BBAF091509E
:1011E000A1F0FF0FBB1F661F771F881FC2F70EC03D
:1011F000BA0F621F731F841F48F487957795679510
:10120000B795F7959E3F08F0B0CF9395880F08F0FB
:101210009927EE0F9795879508950E9421090C94C0
:10122000090A0E94020A58F00E94FB0940F029F4C2
:101230005F3F29F00C94F20951110C943D0A0C9473
:10124000F8090E941A0A68F39923B1F3552391F320
:10125000951B550BBB27AA2762177307840738F025
:101260009F5F5F4F220F331F441FAA1FA9F335D082
:101270000E2E3AF0E0E832D091505040E695001C36
:10128000CAF72BD0FE2F29D0660F771F881FBB1FF0
:10129000261737074807AB07B0E809F0BB0B802DCE
:1012A000BF01FF2793585F4F3AF09E3F510578F0FA
:1012B0000C94F2090C943D0A5F3FE4F3983ED4F39A
:1012C000869577956795B795F7959F5FC9F7880FCE
:1012D000911D9695879597F90895E1E0660F771F20
:1012E000881FBB1F621773078407BA0720F0621BB1
:1012F000730B840BBA0BEE1F88F7E09508950E94DC
:1013000086096894B1110C943D0A08950E94220A3E
:1013100088F09F5798F0B92F9927B751B0F0E1F0B6
:10132000660F771F881F991F1AF0BA95C9F714C066
:10133000B13091F00E943C0AB1E008950C943C0A4F
:10134000672F782F8827B85F39F0B93FCCF386959F
:1013500077956795B395D9F73EF4909580957095FC
:1013600061957F4F8F4F9F4F0895E89409C097FB79
:101370003EF490958095709561957F4F8F4F9F4F6C
:101380009923A9F0F92F96E9BB279395F6958795B0
:1013900077956795B795F111F8CFFAF4BB0F11F473
:1013A00060FF1BC06F5F7F4F8F4F9F4F16C088231A
:1013B00011F096E911C0772321F09EE8872F762F50
:1013C00005C0662371F096E8862F70E060E02AF091
:1013D0009A95660F771F881FDAF7880F969587957D
:1013E00097F9089597F99F6780E870E060E00895A5
:1013F0009FEF80EC089500240A941616170618062D
:101400000906089500240A94121613061406050608
:101410000895092E0394000C11F4882352F0BB0F99
:1014200040F4BF2B11F460FF04C06F5F7F4F8F4FFC
:101430009F4F089557FD9058440F551F59F05F3F37
:1014400071F04795880F97FB991F61F09F3F79F0E6
:1014500087950895121613061406551FF2CF469568
:10146000F1DF08C0161617061806991FF1CF8695EA
:101470007105610508940895E894BB2766277727CE
:10148000CB0197F908950E94560A0C94090A0E940C
:10149000FB0938F00E94020A20F0952311F00C9409
:1014A000F2090C94F80911240C943D0A0E941A0ABE
:1014B00070F3959FC1F3950F50E0551F629FF001A7
:1014C000729FBB27F00DB11D639FAA27F00DB11DC0
:1014D000AA1F649F6627B00DA11D661F829F222749
:1014E000B00DA11D621F739FB00DA11D621F839FD0
:1014F000A00D611D221F749F3327A00D611D231FA6
:10150000849F600D211D822F762F6A2F11249F57F3
:1015100050409AF0F1F088234AF0EE0FFF1FBB1FF6
:10152000661F771F881F91505040A9F79E3F5105B5
:1015300080F00C94F2090C943D0A5F3FE4F3983E6E
:10154000D4F3869577956795B795F795E7959F5F5F
:10155000C1F7FE2B880F911D9695879597F90895F1
:101560009F930E94BA0A0F9007FCEE5F0C94E30A67
:101570000C94F8090E94220AD8F3E894E0E0BB2713
:101580009F57F0F02AED3FE049EC06C0EE0FBB0F8D
:10159000661F771F881F28F0B23A62077307840717
:1015A00028F0B25A620B730B840BE3959A9572F78D
:1015B000803830F49A95BB0F661F771F881FD2F7CB
:1015C00090480C94F90AEF93E0FF07C0A2EA2AEDD5
:1015D0003FE049EC5FEB0E94B8080E94090A0F90B7
:1015E000039401FC9058E8E6F0E00C94050B9F3F53
:1015F00031F0915020F4879577956795B795880FCE
:10160000911D9695879597F908959F938F937F9352
:101610006F93FF93EF939B01AC010E94430AEF91FC
:10162000FF910E94190B2F913F914F915F910C9464
:10163000430ADF93CF931F930F93FF92EF92DF92B2
:101640007B018C01689406C0DA2EEF010E94560AD5
:10165000FE01E894A5912591359145915591A6F308
:10166000EF010E94B808FE019701A801DA9469F71A
:10167000DF90EF90FF900F911F91CF91DF91089530
:10168000A1E21A2EAA1BBB1BFD010DC0AA1FBB1F86
:10169000EE1FFF1FA217B307E407F50720F0A21BF8
:1016A000B30BE40BF50B661F771F881F991F1A9465
:1016B00069F760957095809590959B01AC01BD018F
:1016C000CF010895EE0FFF1F0590F491E02D0994CE
:0416D000F894FFCFBC
:1016D40000000000EC03590479033904AA038803C9
:0616E4009C030D0A00004A
:00000001FF
